:100000000C9463000C948B000C948B000C94E8010E
:100010000C94E8010C94E8010C948B000C948B0078
:100020000C948B000C948B000C948B000C948B0024
:100030000C948B000C948B000C948B000C948B0014
:100040000C949E010C948B000C948B000C948B00F0
:100050000C948B000C948B000C948B000C948B00F4
:100060000C948B000C948B000000000023002600F1
:10007000290000000000240027002A0000000000E2
:10008000250028002B0004040404040404040202D4
:100090000202020203030303030301020408102007
:1000A0004080010204081020010204081020000012
:1000B0000008000201000003040700000000000027
:1000C0000000DD03D40411241FBECFEFD8E0DEBF53
:1000D000CDBF21E0A0E4B1E001C01D92A83BB20772
:1000E000E1F711E0A0E0B1E0E4EBFEE002C0059032
:1000F0000D92A034B107D9F710E0C2E6D0E004C0F9
:100100002197FE010E945505C136D107C9F70E940B
:10011000AC020C944D070C940000AF92BF92CF92AA
:10012000DF92EF92FF920F931F93CF93DF936C01B7
:100130007B018B01040F151FEB015E01AE18BF0898
:10014000C017D10759F06991D601ED91FC9101904A
:10015000F081E02DC6010995892B79F7C501DF9162
:10016000CF911F910F91FF90EF90DF90CF90BF90B4
:10017000AF9008953FB7F8948091850190918601E2
:10018000A0918701B091880126B5A89B05C02F3F9B
:1001900019F00196A11DB11D3FBFBA2FA92F982FAD
:1001A0008827BC01CD01620F711D811D911D42E0A8
:1001B000660F771F881F991F4A95D1F708952091E0
:1001C0008B0130918C012817390771F490918901C6
:1001D00080918A01981741F0E0918901F0E0E05C9C
:1001E000FE4F808190E008958FEF9FEF089520915A
:1001F0008B0130918C012817390739F48FB7F894A7
:1002000010928A01109289018FBF0895EF92FF9298
:100210000F931F93CF93DF93DC015C96ED90FC90DE
:100220005D97E114F10479F481E090E013969C93DA
:100230008E93129790E080E0DF91CF911F910F9104
:10024000FF90EF9008955196ED91FC915297509642
:100250008C915097982F90950FB75E962C915E9742
:10026000122F127021FD6095F8942081112319F14D
:10027000282B2083E7012197F1F728E0462F50E053
:10028000308160FF1AC0382B3083E7012197F1F7E6
:10029000BA0175956795215089F7112381F0808106
:1002A000892380830FBF5C968D919C910197F1F714
:1002B00081E090E0C1CF2923DCCF3923E5CF9081C5
:1002C000892BEFCF20918B0130918C0128173907B2
:1002D00071F480918A012091890190E0805C9F4FA8
:1002E000821B910960E470E00E942D05089590E062
:1002F00080E0089520918B0130918C0128173907F7
:10030000B9F49091890180918A01981789F0E09160
:100310008901F0E0E05CFE4F80812091890130E0AE
:100320002F5F3F4F2F7333272093890190E008956B
:100330008FEF9FEF089590E080E008951F920F9255
:100340000FB60F9211242F933F938F939F93AF93E8
:10035000BF938091810190918201A0918301B0911E
:1003600084013091800123E0230F2D3758F5019649
:10037000A11DB11D20938001809381019093820182
:10038000A0938301B09384018091850190918601AF
:10039000A0918701B09188010196A11DB11D8093A4
:1003A000850190938601A0938701B0938801BF9146
:1003B000AF919F918F913F912F910F900FBE0F9012
:1003C0001F90189526E8230F0296A11DB11DD2CFCC
:1003D0001F920F920FB60F9211242F933F934F93BA
:1003E0005F936F937F938F939F93AF93BF93EF939D
:1003F000FF93E0918B01F0918C01309749F0A68535
:10040000B7858585968D91FF14C09C918923A1F4B1
:10041000FF91EF91BF91AF919F918F917F916F91DC
:100420005F914F913F912F910F900FBE0F901F90B2
:1004300018959C91892361F7A389B4899C9185893A
:10044000809589238C93868997890197F1F7608D30
:10045000718DA685B785558538E020E0CB010197E1
:10046000F1F7822F90E095958795282F4C914523A1
:1004700009F02068315091F7868D81FD209580919B
:100480008A0190E001968F7399273091890138177E
:1004900099F0A0918A01B0E0A05CBE4F2C938093AC
:1004A0008A01828D938D0197F1F7A389B4898C918C
:1004B0009589892B8C93ACCF868D8160868FF1CF07
:1004C00090E0FC01E255FF4F2491FC01E656FF4FFE
:1004D0003491FC01EA57FF4FE491EE23C9F0222347
:1004E00039F0233001F1A8F4213019F1223029F13B
:1004F000F0E0EE0FFF1FE458FF4FA591B4918FB7C6
:10050000F894EC91611126C030953E233C938FBF47
:1005100008952730A9F02830C9F0243049F7809198
:1005200080008F7D03C0809180008F778093800052
:10053000DFCF84B58F7784BDDBCF84B58F7DFBCFD4
:100540008091B0008F778093B000D2CF8091B000BF
:100550008F7DF9CF3E2BDACF789484B5826084BD4D
:1005600084B5816084BD85B5826085BD85B58160B7
:1005700085BD80916E00816080936E001092810035
:1005800080918100826080938100809181008160F0
:1005900080938100809180008160809380008091B1
:1005A000B10084608093B1008091B000816080933D
:1005B000B00080917A00846080937A0080917A0004
:1005C000826080937A0080917A00816080937A00C3
:1005D00080917A00806880937A001092C100109216
:1005E000B0011092AF011092AE011092AD011092C5
:1005F000AC011092AB018DE991E09093B201809330
:10060000B1019091A101963108F047C02DEB30E087
:100610003093AC012093AB012BE931E03093AE0174
:100620002093AD012CE231E03093B0012093AF0173
:100630002091680084E0983048F031E09E3008F462
:1006400030E081E001C0880F3A95EAF7822B809371
:1006500068002DE630E0983050F02BE630E09E3018
:1006600030F02CE630E0963110F030E020E03093AE
:10067000A9012093A801292F30E0983008F090C0FC
:1006800081E001C0880F9A95EAF78093AA018091D2
:10069000B1019091B2010197F1F78091AF01909172
:1006A000B001892B49F1E0918B01F0918C0121E09F
:1006B000E539F20709F1309739F0A389B4899C91A3
:1006C0008589809589238C938091B3018E7F809357
:1006D000B30110928A011092890185E991E090930B
:1006E0008C0180938B01E091A801F091A901808198
:1006F0009091AA01892B8083C0E0D0E040919301C2
:100700005091940160918F017091900185E991E081
:100710000E948D0042E050E068E171E085E991E0DF
:100720000E948D0080918D0190918E01059721F49A
:1007300010928E0110928D0180918D0190918E0109
:10074000019690938E0180938D010E94BA006B01F7
:100750007C0180ED882E87E0982EA12CB12C0E9480
:10076000BA006C197D098E099F09683E73408105A6
:100770009105A8F381E0881A9108A108B10828EE34
:10078000C20E23E0D21EE11CF11C81149104A104CD
:10079000B10429F7209709F4B1CF0E940000AECF31
:1007A0009E3040F42850310981E001C0880F2A951D
:1007B000EAF76BCF2E503109F7CF0F931F93CF93EA
:1007C000DF93109298011092970188EE93E0A0E0D9
:1007D000B0E08093990190939A01A0939B01B0930C
:1007E0009C018AE091E0909396018093950110928C
:1007F000AC011092AB011092AE011092AD011092BB
:10080000B0011092AF011092B2011092B10160914B
:10081000B3016E7F6D7F6093B3016695617081E077
:10082000682787E00E94600241EA50E0FA01649183
:100830008DE890E0FC012491222399F030E0220F12
:10084000331FF901EE58FF4FA591B491F901E45817
:10085000FF4F259134912FB7F8943C91632B6C9303
:100860002FBFFA0144914093A501FC018491E82F28
:10087000F0E0EE0FFF1FE458FF4F859194919093A5
:10088000A7018093A60100EA10E0F8012491CCE8CA
:10089000D0E0FE0184918823C9F090E0880F991F71
:1008A000FC01EE58FF4FA591B491FC01E458FF4FB5
:1008B000459154913FB7F8949C91822F809598234D
:1008C0009C93FA019081892380833FBF8091B3017B
:1008D00081FD04C061E086E00E94600286E08093B2
:1008E000A101F80104910093A201FE01C491EC2F33
:1008F000F0E0EE0FFF1FE859FF4F85919491909320
:10090000A4018093A3011092900110928F01109284
:10091000920110929101109294011092930165E25C
:1009200070E090E080E00E948006009721F19093B3
:10093000900180938F0124E230E030939201209364
:1009400091012091930130919401232B11F4FC012A
:10095000108284E290E090939401809393016BE184
:1009600071E080918F0190919001DF91CF911F9163
:100970000F910C94460780918F0190919001009700
:1009800011F00E94F7051092900110928F011092C1
:100990009401109293011092920110929101DF91B3
:1009A000CF911F910F91089580918F0190919001A7
:1009B0000E94F7058AE091E090939601809395015B
:1009C00080918B0190918C018559914071F4E09157
:1009D000A801F091A90190818091AA0180958923B5
:1009E000808310928C0110928B0108952F923F9278
:1009F0004F925F926F927F928F929F92AF92BF922F
:100A0000CF92DF92EF92FF920F931F93CF93DF93DA
:100A1000CDB7DEB7CA1BDB0B0FB6F894DEBF0FBE37
:100A2000CDBF09942A88398848885F846E847D8484
:100A30008C849B84AA84B984C884DF80EE80FD8086
:100A40000C811B81AA81B981CE0FD11D0FB6F894FC
:100A5000DEBF0FBECDBFED01089597FB072E16F444
:100A6000009407D077FD09D00E94410507FC05D00E
:100A70003EF4909581959F4F0895709561957F4FB5
:100A80000895AA1BBB1B51E107C0AA1FBB1FA617D5
:100A9000B70710F0A61BB70B881F991F5A95A9F727
:100AA00080959095BC01CD010895EE0FFF1F059034
:100AB000F491E02D09940F931F93CF93DF9382302D
:100AC000910510F482E090E0E091B601F091B70159
:100AD00030E020E0B0E0A0E0309799F42115310536
:100AE00009F44AC0281B390B24303105D8F58A8116
:100AF0009B816115710589F1FB0193838283FE015E
:100B000011C0408151810281138148175907E0F0DB
:100B10004817590799F4109761F012960C931297A1
:100B200013961C933296CF01DF91CF911F910F91B5
:100B300008950093B6011093B701F4CF2115310544
:100B400051F04217530738F0A901DB019A01BD01AA
:100B5000DF01F801C1CFEF01F9CF9093B701809386
:100B6000B601CDCFFE01E20FF31F81939193225086
:100B7000310939832883D7CF2091B4013091B50151
:100B8000232B41F420910201309103013093B501F0
:100B90002093B4012091000130910101211531050C
:100BA00041F42DB73EB74091040150910501241B3B
:100BB000350BE091B401F091B501E217F307A0F411
:100BC0002E1B3F0B2817390778F0AC014E5F5F4FA3
:100BD0002417350748F04E0F5F1F5093B50140931F
:100BE000B401819391939FCFF0E0E0E09CCFCF934D
:100BF000DF930097E9F0FC01329713821282A091F3
:100C0000B601B091B701ED0130E020E01097A1F4FA
:100C100020813181820F931F2091B4013091B50161
:100C20002817390709F061C0F093B501E093B401CA
:100C3000DF91CF910895EA01CE17DF07E8F54A81E9
:100C40005B819E0141155105B1F7E901FB83EA8300
:100C500049915991C40FD51FEC17FD0761F48081AC
:100C600091810296840F951FE9019983888382817F
:100C700093819B838A83F0E0E0E012968D919C91B2
:100C800013970097B9F52D913C911197CD010296DC
:100C9000820F931F2091B4013091B50128173907B5
:100CA00039F6309751F51092B7011092B601B09312
:100CB000B501A093B401BCCFD383C28340815181DD
:100CC000840F951FC817D90761F44E5F5F4F888165
:100CD0009981480F591F518340838A819B81938357
:100CE00082832115310509F0B0CFF093B701E0936D
:100CF000B6019ECFFD01DC01C0CF13821282D7CF97
:100D0000B0E0A0E0E6E8F6E00C94F8048C0100976F
:100D100051F4CB010E945B058C01C801CDB7DEB751
:100D2000E0E10C941405FC01E60FF71F9C01225032
:100D30003109E217F30708F49DC0D901CD91DC9188
:100D40001197C617D70798F0C530D10530F3CE01FB
:100D500004978617970708F3C61BD70B2297C193F2
:100D6000D1936D937C93CF010E94F705D6CF5B01A1
:100D7000AC1ABD0A4C018C0E9D1EA091B601B0911B
:100D8000B701512C412CF12CE12C109731F58091B9
:100D9000B4019091B5018815990509F05CC046161B
:100DA000570608F058C0809100019091010100970A
:100DB00041F48DB79EB74091040150910501841B09
:100DC000950BE817F90708F055C0F093B501E093CB
:100DD000B401F90171836083A0CF8D919C9111972B
:100DE00012966C90129713967C901397A815B905DC
:100DF00059F56C0142E0C40ED11CCA14DB0420F189
:100E0000AC014A195B09DA011296159780F06282EB
:100E1000738251834083D9016D937C93E114F10473
:100E200071F0D7011396FC93EE93129776CF22962A
:100E30008C0F9D1FF90191838083F301EFCFF09315
:100E4000B701E093B60169CF4816590608F42C01A2
:100E50007D01D3019ACFCB010E945B057C010097F5
:100E600049F0AE01B8010E943D07C8010E94F70594
:100E7000870153CF10E000E050CFFB01DC0102C03E
:100E800001900D9241505040D8F70895FB01DC01CC
:100E900001900D920020E1F7089510E0C2E6D0E045
:100EA00004C0FE010E9455052196C336D107C9F73B
:040EB000F894FFCFE4
:100EB4000000B80180000000000006018D009B01C5
:100EC400F70062017A01DF000D0A005B39392E3127
:100ED4002C2032322E322C2031332E332C20343439
:100EE4002E342C2035352E352C20302C20305D002E
:00000001FF
